{
  "_format": "hh-sol-artifact-1",
  "contractName": "EVMGateway",
  "sourceName": "contracts/EVMGateway.sol",
  "abi": [
    {
      "inputs": [
        {
          "internalType": "address",
          "name": "_coordinator",
          "type": "address"
        }
      ],
      "stateMutability": "nonpayable",
      "type": "constructor"
    },
    {
      "inputs": [],
      "name": "AccessControlBadConfirmation",
      "type": "error"
    },
    {
      "inputs": [
        {
          "internalType": "address",
          "name": "account",
          "type": "address"
        },
        {
          "internalType": "bytes32",
          "name": "neededRole",
          "type": "bytes32"
        }
      ],
      "name": "AccessControlUnauthorizedAccount",
      "type": "error"
    },
    {
      "inputs": [],
      "name": "ECDSAInvalidSignature",
      "type": "error"
    },
    {
      "inputs": [
        {
          "internalType": "uint256",
          "name": "length",
          "type": "uint256"
        }
      ],
      "name": "ECDSAInvalidSignatureLength",
      "type": "error"
    },
    {
      "inputs": [
        {
          "internalType": "bytes32",
          "name": "s",
          "type": "bytes32"
        }
      ],
      "name": "ECDSAInvalidSignatureS",
      "type": "error"
    },
    {
      "inputs": [],
      "name": "EnforcedPause",
      "type": "error"
    },
    {
      "inputs": [],
      "name": "ExpectedPause",
      "type": "error"
    },
    {
      "inputs": [],
      "name": "ReentrancyGuardReentrantCall",
      "type": "error"
    },
    {
      "inputs": [
        {
          "internalType": "address",
          "name": "token",
          "type": "address"
        }
      ],
      "name": "SafeERC20FailedOperation",
      "type": "error"
    },
    {
      "anonymous": false,
      "inputs": [
        {
          "indexed": false,
          "internalType": "uint256",
          "name": "oldFee",
          "type": "uint256"
        },
        {
          "indexed": false,
          "internalType": "uint256",
          "name": "newFee",
          "type": "uint256"
        }
      ],
      "name": "BridgeFeeUpdated",
      "type": "event"
    },
    {
      "anonymous": false,
      "inputs": [
        {
          "indexed": true,
          "internalType": "address",
          "name": "oldCoordinator",
          "type": "address"
        },
        {
          "indexed": true,
          "internalType": "address",
          "name": "newCoordinator",
          "type": "address"
        },
        {
          "indexed": false,
          "internalType": "uint256",
          "name": "timestamp",
          "type": "uint256"
        }
      ],
      "name": "CoordinatorUpdated",
      "type": "event"
    },
    {
      "anonymous": false,
      "inputs": [
        {
          "indexed": true,
          "internalType": "address",
          "name": "triggeredBy",
          "type": "address"
        },
        {
          "indexed": false,
          "internalType": "string",
          "name": "reason",
          "type": "string"
        },
        {
          "indexed": false,
          "internalType": "uint256",
          "name": "timestamp",
          "type": "uint256"
        }
      ],
      "name": "EmergencyPause",
      "type": "event"
    },
    {
      "anonymous": false,
      "inputs": [
        {
          "indexed": true,
          "internalType": "address",
          "name": "provider",
          "type": "address"
        },
        {
          "indexed": true,
          "internalType": "address",
          "name": "token",
          "type": "address"
        },
        {
          "indexed": false,
          "internalType": "uint256",
          "name": "amount",
          "type": "uint256"
        },
        {
          "indexed": false,
          "internalType": "uint256",
          "name": "timestamp",
          "type": "uint256"
        }
      ],
      "name": "LiquidityAdded",
      "type": "event"
    },
    {
      "anonymous": false,
      "inputs": [
        {
          "indexed": true,
          "internalType": "address",
          "name": "provider",
          "type": "address"
        },
        {
          "indexed": true,
          "internalType": "address",
          "name": "token",
          "type": "address"
        },
        {
          "indexed": false,
          "internalType": "uint256",
          "name": "amount",
          "type": "uint256"
        },
        {
          "indexed": false,
          "internalType": "uint256",
          "name": "timestamp",
          "type": "uint256"
        }
      ],
      "name": "LiquidityRemoved",
      "type": "event"
    },
    {
      "anonymous": false,
      "inputs": [
        {
          "indexed": false,
          "internalType": "address",
          "name": "account",
          "type": "address"
        }
      ],
      "name": "Paused",
      "type": "event"
    },
    {
      "anonymous": false,
      "inputs": [
        {
          "indexed": true,
          "internalType": "bytes32",
          "name": "role",
          "type": "bytes32"
        },
        {
          "indexed": true,
          "internalType": "bytes32",
          "name": "previousAdminRole",
          "type": "bytes32"
        },
        {
          "indexed": true,
          "internalType": "bytes32",
          "name": "newAdminRole",
          "type": "bytes32"
        }
      ],
      "name": "RoleAdminChanged",
      "type": "event"
    },
    {
      "anonymous": false,
      "inputs": [
        {
          "indexed": true,
          "internalType": "bytes32",
          "name": "role",
          "type": "bytes32"
        },
        {
          "indexed": true,
          "internalType": "address",
          "name": "account",
          "type": "address"
        },
        {
          "indexed": true,
          "internalType": "address",
          "name": "sender",
          "type": "address"
        }
      ],
      "name": "RoleGranted",
      "type": "event"
    },
    {
      "anonymous": false,
      "inputs": [
        {
          "indexed": true,
          "internalType": "bytes32",
          "name": "role",
          "type": "bytes32"
        },
        {
          "indexed": true,
          "internalType": "address",
          "name": "account",
          "type": "address"
        },
        {
          "indexed": true,
          "internalType": "address",
          "name": "sender",
          "type": "address"
        }
      ],
      "name": "RoleRevoked",
      "type": "event"
    },
    {
      "anonymous": false,
      "inputs": [
        {
          "indexed": true,
          "internalType": "bytes32",
          "name": "depositId",
          "type": "bytes32"
        },
        {
          "indexed": true,
          "internalType": "address",
          "name": "sender",
          "type": "address"
        },
        {
          "indexed": true,
          "internalType": "address",
          "name": "token",
          "type": "address"
        },
        {
          "indexed": false,
          "internalType": "uint256",
          "name": "amount",
          "type": "uint256"
        },
        {
          "indexed": false,
          "internalType": "uint64",
          "name": "targetChainId",
          "type": "uint64"
        },
        {
          "indexed": false,
          "internalType": "bytes32",
          "name": "recipient",
          "type": "bytes32"
        },
        {
          "indexed": false,
          "internalType": "bytes32",
          "name": "zcashAddress",
          "type": "bytes32"
        },
        {
          "indexed": false,
          "internalType": "uint256",
          "name": "timestamp",
          "type": "uint256"
        }
      ],
      "name": "TokensLocked",
      "type": "event"
    },
    {
      "anonymous": false,
      "inputs": [
        {
          "indexed": true,
          "internalType": "bytes32",
          "name": "withdrawalId",
          "type": "bytes32"
        },
        {
          "indexed": true,
          "internalType": "address",
          "name": "recipient",
          "type": "address"
        },
        {
          "indexed": true,
          "internalType": "address",
          "name": "token",
          "type": "address"
        },
        {
          "indexed": false,
          "internalType": "uint256",
          "name": "amount",
          "type": "uint256"
        },
        {
          "indexed": false,
          "internalType": "bytes32",
          "name": "nullifier",
          "type": "bytes32"
        },
        {
          "indexed": false,
          "internalType": "uint256",
          "name": "timestamp",
          "type": "uint256"
        }
      ],
      "name": "TokensReleased",
      "type": "event"
    },
    {
      "anonymous": false,
      "inputs": [
        {
          "indexed": false,
          "internalType": "address",
          "name": "account",
          "type": "address"
        }
      ],
      "name": "Unpaused",
      "type": "event"
    },
    {
      "anonymous": false,
      "inputs": [
        {
          "indexed": true,
          "internalType": "bytes32",
          "name": "withdrawalId",
          "type": "bytes32"
        },
        {
          "indexed": true,
          "internalType": "address",
          "name": "recipient",
          "type": "address"
        },
        {
          "indexed": true,
          "internalType": "address",
          "name": "token",
          "type": "address"
        },
        {
          "indexed": false,
          "internalType": "uint256",
          "name": "amount",
          "type": "uint256"
        },
        {
          "indexed": false,
          "internalType": "bytes32",
          "name": "nullifier",
          "type": "bytes32"
        },
        {
          "indexed": false,
          "internalType": "bytes",
          "name": "zcashProof",
          "type": "bytes"
        },
        {
          "indexed": false,
          "internalType": "bytes32",
          "name": "merkleRoot",
          "type": "bytes32"
        },
        {
          "indexed": false,
          "internalType": "uint256",
          "name": "timestamp",
          "type": "uint256"
        }
      ],
      "name": "WithdrawalRequested",
      "type": "event"
    },
    {
      "inputs": [],
      "name": "DEFAULT_ADMIN_ROLE",
      "outputs": [
        {
          "internalType": "bytes32",
          "name": "",
          "type": "bytes32"
        }
      ],
      "stateMutability": "view",
      "type": "function"
    },
    {
      "inputs": [],
      "name": "LIQUIDITY_PROVIDER_ROLE",
      "outputs": [
        {
          "internalType": "bytes32",
          "name": "",
          "type": "bytes32"
        }
      ],
      "stateMutability": "view",
      "type": "function"
    },
    {
      "inputs": [],
      "name": "MAX_DEPOSIT",
      "outputs": [
        {
          "internalType": "uint256",
          "name": "",
          "type": "uint256"
        }
      ],
      "stateMutability": "view",
      "type": "function"
    },
    {
      "inputs": [],
      "name": "MIN_DEPOSIT",
      "outputs": [
        {
          "internalType": "uint256",
          "name": "",
          "type": "uint256"
        }
      ],
      "stateMutability": "view",
      "type": "function"
    },
    {
      "inputs": [],
      "name": "NATIVE_ASSET",
      "outputs": [
        {
          "internalType": "address",
          "name": "",
          "type": "address"
        }
      ],
      "stateMutability": "view",
      "type": "function"
    },
    {
      "inputs": [],
      "name": "PAUSER_ROLE",
      "outputs": [
        {
          "internalType": "bytes32",
          "name": "",
          "type": "bytes32"
        }
      ],
      "stateMutability": "view",
      "type": "function"
    },
    {
      "inputs": [
        {
          "internalType": "address",
          "name": "token",
          "type": "address"
        },
        {
          "internalType": "uint256",
          "name": "amount",
          "type": "uint256"
        }
      ],
      "name": "addLiquidity",
      "outputs": [],
      "stateMutability": "payable",
      "type": "function"
    },
    {
      "inputs": [
        {
          "internalType": "address",
          "name": "provider",
          "type": "address"
        }
      ],
      "name": "addLiquidityProvider",
      "outputs": [],
      "stateMutability": "nonpayable",
      "type": "function"
    },
    {
      "inputs": [],
      "name": "bridgeFee",
      "outputs": [
        {
          "internalType": "uint256",
          "name": "",
          "type": "uint256"
        }
      ],
      "stateMutability": "view",
      "type": "function"
    },
    {
      "inputs": [],
      "name": "coordinator",
      "outputs": [
        {
          "internalType": "address",
          "name": "",
          "type": "address"
        }
      ],
      "stateMutability": "view",
      "type": "function"
    },
    {
      "inputs": [
        {
          "internalType": "address",
          "name": "token",
          "type": "address"
        },
        {
          "internalType": "uint256",
          "name": "amount",
          "type": "uint256"
        },
        {
          "internalType": "uint64",
          "name": "targetChainId",
          "type": "uint64"
        },
        {
          "internalType": "bytes32",
          "name": "recipient",
          "type": "bytes32"
        },
        {
          "internalType": "bytes32",
          "name": "zcashAddress",
          "type": "bytes32"
        }
      ],
      "name": "deposit",
      "outputs": [
        {
          "internalType": "bytes32",
          "name": "depositId",
          "type": "bytes32"
        }
      ],
      "stateMutability": "payable",
      "type": "function"
    },
    {
      "inputs": [],
      "name": "depositNonce",
      "outputs": [
        {
          "internalType": "uint256",
          "name": "",
          "type": "uint256"
        }
      ],
      "stateMutability": "view",
      "type": "function"
    },
    {
      "inputs": [
        {
          "internalType": "bytes32",
          "name": "",
          "type": "bytes32"
        }
      ],
      "name": "deposits",
      "outputs": [
        {
          "internalType": "address",
          "name": "sender",
          "type": "address"
        },
        {
          "internalType": "address",
          "name": "token",
          "type": "address"
        },
        {
          "internalType": "uint256",
          "name": "amount",
          "type": "uint256"
        },
        {
          "internalType": "uint64",
          "name": "targetChainId",
          "type": "uint64"
        },
        {
          "internalType": "bytes32",
          "name": "recipient",
          "type": "bytes32"
        },
        {
          "internalType": "bytes32",
          "name": "zcashAddress",
          "type": "bytes32"
        },
        {
          "internalType": "uint256",
          "name": "timestamp",
          "type": "uint256"
        },
        {
          "internalType": "bool",
          "name": "processed",
          "type": "bool"
        }
      ],
      "stateMutability": "view",
      "type": "function"
    },
    {
      "inputs": [
        {
          "internalType": "address",
          "name": "token",
          "type": "address"
        },
        {
          "internalType": "address",
          "name": "to",
          "type": "address"
        },
        {
          "internalType": "uint256",
          "name": "amount",
          "type": "uint256"
        }
      ],
      "name": "emergencyWithdraw",
      "outputs": [],
      "stateMutability": "nonpayable",
      "type": "function"
    },
    {
      "inputs": [
        {
          "internalType": "bytes32",
          "name": "withdrawalId",
          "type": "bytes32"
        },
        {
          "internalType": "bytes",
          "name": "coordinatorSignature",
          "type": "bytes"
        }
      ],
      "name": "executeWithdrawal",
      "outputs": [
        {
          "internalType": "bool",
          "name": "success",
          "type": "bool"
        }
      ],
      "stateMutability": "nonpayable",
      "type": "function"
    },
    {
      "inputs": [
        {
          "internalType": "address",
          "name": "token",
          "type": "address"
        }
      ],
      "name": "getAvailableLiquidity",
      "outputs": [
        {
          "internalType": "uint256",
          "name": "",
          "type": "uint256"
        }
      ],
      "stateMutability": "view",
      "type": "function"
    },
    {
      "inputs": [
        {
          "internalType": "bytes32",
          "name": "depositId",
          "type": "bytes32"
        }
      ],
      "name": "getDeposit",
      "outputs": [
        {
          "internalType": "bool",
          "name": "exists",
          "type": "bool"
        },
        {
          "internalType": "address",
          "name": "sender",
          "type": "address"
        },
        {
          "internalType": "address",
          "name": "token",
          "type": "address"
        },
        {
          "internalType": "uint256",
          "name": "amount",
          "type": "uint256"
        },
        {
          "internalType": "uint64",
          "name": "targetChainId",
          "type": "uint64"
        },
        {
          "internalType": "bool",
          "name": "processed",
          "type": "bool"
        }
      ],
      "stateMutability": "view",
      "type": "function"
    },
    {
      "inputs": [
        {
          "internalType": "address",
          "name": "token",
          "type": "address"
        }
      ],
      "name": "getLockedBalance",
      "outputs": [
        {
          "internalType": "uint256",
          "name": "",
          "type": "uint256"
        }
      ],
      "stateMutability": "view",
      "type": "function"
    },
    {
      "inputs": [
        {
          "internalType": "bytes32",
          "name": "role",
          "type": "bytes32"
        }
      ],
      "name": "getRoleAdmin",
      "outputs": [
        {
          "internalType": "bytes32",
          "name": "",
          "type": "bytes32"
        }
      ],
      "stateMutability": "view",
      "type": "function"
    },
    {
      "inputs": [],
      "name": "getStats",
      "outputs": [
        {
          "internalType": "uint256",
          "name": "totalDepositAmount",
          "type": "uint256"
        },
        {
          "internalType": "uint256",
          "name": "totalWithdrawalAmount",
          "type": "uint256"
        },
        {
          "internalType": "uint256",
          "name": "volume",
          "type": "uint256"
        },
        {
          "internalType": "uint256",
          "name": "activeDeposits",
          "type": "uint256"
        }
      ],
      "stateMutability": "view",
      "type": "function"
    },
    {
      "inputs": [
        {
          "internalType": "bytes32",
          "name": "withdrawalId",
          "type": "bytes32"
        }
      ],
      "name": "getWithdrawalRequest",
      "outputs": [
        {
          "internalType": "bool",
          "name": "exists",
          "type": "bool"
        },
        {
          "internalType": "address",
          "name": "recipient",
          "type": "address"
        },
        {
          "internalType": "address",
          "name": "token",
          "type": "address"
        },
        {
          "internalType": "uint256",
          "name": "amount",
          "type": "uint256"
        },
        {
          "internalType": "bytes32",
          "name": "nullifier",
          "type": "bytes32"
        },
        {
          "internalType": "bool",
          "name": "executed",
          "type": "bool"
        }
      ],
      "stateMutability": "view",
      "type": "function"
    },
    {
      "inputs": [
        {
          "internalType": "bytes32",
          "name": "role",
          "type": "bytes32"
        },
        {
          "internalType": "address",
          "name": "account",
          "type": "address"
        }
      ],
      "name": "grantRole",
      "outputs": [],
      "stateMutability": "nonpayable",
      "type": "function"
    },
    {
      "inputs": [
        {
          "internalType": "bytes32",
          "name": "role",
          "type": "bytes32"
        },
        {
          "internalType": "address",
          "name": "account",
          "type": "address"
        }
      ],
      "name": "hasRole",
      "outputs": [
        {
          "internalType": "bool",
          "name": "",
          "type": "bool"
        }
      ],
      "stateMutability": "view",
      "type": "function"
    },
    {
      "inputs": [
        {
          "internalType": "bytes32",
          "name": "nullifier",
          "type": "bytes32"
        }
      ],
      "name": "isNullifierUsed",
      "outputs": [
        {
          "internalType": "bool",
          "name": "",
          "type": "bool"
        }
      ],
      "stateMutability": "view",
      "type": "function"
    },
    {
      "inputs": [
        {
          "internalType": "address",
          "name": "",
          "type": "address"
        }
      ],
      "name": "lockedBalances",
      "outputs": [
        {
          "internalType": "uint256",
          "name": "",
          "type": "uint256"
        }
      ],
      "stateMutability": "view",
      "type": "function"
    },
    {
      "inputs": [],
      "name": "paused",
      "outputs": [
        {
          "internalType": "bool",
          "name": "",
          "type": "bool"
        }
      ],
      "stateMutability": "view",
      "type": "function"
    },
    {
      "inputs": [
        {
          "internalType": "address",
          "name": "token",
          "type": "address"
        },
        {
          "internalType": "uint256",
          "name": "amount",
          "type": "uint256"
        }
      ],
      "name": "removeLiquidity",
      "outputs": [],
      "stateMutability": "nonpayable",
      "type": "function"
    },
    {
      "inputs": [
        {
          "internalType": "address",
          "name": "provider",
          "type": "address"
        }
      ],
      "name": "removeLiquidityProvider",
      "outputs": [],
      "stateMutability": "nonpayable",
      "type": "function"
    },
    {
      "inputs": [
        {
          "internalType": "bytes32",
          "name": "role",
          "type": "bytes32"
        },
        {
          "internalType": "address",
          "name": "callerConfirmation",
          "type": "address"
        }
      ],
      "name": "renounceRole",
      "outputs": [],
      "stateMutability": "nonpayable",
      "type": "function"
    },
    {
      "inputs": [
        {
          "internalType": "address",
          "name": "token",
          "type": "address"
        },
        {
          "internalType": "uint256",
          "name": "amount",
          "type": "uint256"
        },
        {
          "internalType": "bytes32",
          "name": "nullifier",
          "type": "bytes32"
        },
        {
          "internalType": "bytes",
          "name": "zcashProof",
          "type": "bytes"
        },
        {
          "internalType": "bytes32",
          "name": "merkleRoot",
          "type": "bytes32"
        }
      ],
      "name": "requestWithdrawal",
      "outputs": [
        {
          "internalType": "bytes32",
          "name": "withdrawalId",
          "type": "bytes32"
        }
      ],
      "stateMutability": "nonpayable",
      "type": "function"
    },
    {
      "inputs": [
        {
          "internalType": "bytes32",
          "name": "role",
          "type": "bytes32"
        },
        {
          "internalType": "address",
          "name": "account",
          "type": "address"
        }
      ],
      "name": "revokeRole",
      "outputs": [],
      "stateMutability": "nonpayable",
      "type": "function"
    },
    {
      "inputs": [
        {
          "internalType": "uint256",
          "name": "newFee",
          "type": "uint256"
        }
      ],
      "name": "setBridgeFee",
      "outputs": [],
      "stateMutability": "nonpayable",
      "type": "function"
    },
    {
      "inputs": [
        {
          "internalType": "address",
          "name": "newCoordinator",
          "type": "address"
        }
      ],
      "name": "setCoordinator",
      "outputs": [],
      "stateMutability": "nonpayable",
      "type": "function"
    },
    {
      "inputs": [
        {
          "internalType": "bool",
          "name": "paused",
          "type": "bool"
        }
      ],
      "name": "setPaused",
      "outputs": [],
      "stateMutability": "nonpayable",
      "type": "function"
    },
    {
      "inputs": [
        {
          "internalType": "bytes4",
          "name": "interfaceId",
          "type": "bytes4"
        }
      ],
      "name": "supportsInterface",
      "outputs": [
        {
          "internalType": "bool",
          "name": "",
          "type": "bool"
        }
      ],
      "stateMutability": "view",
      "type": "function"
    },
    {
      "inputs": [],
      "name": "totalDeposits",
      "outputs": [
        {
          "internalType": "uint256",
          "name": "",
          "type": "uint256"
        }
      ],
      "stateMutability": "view",
      "type": "function"
    },
    {
      "inputs": [],
      "name": "totalVolume",
      "outputs": [
        {
          "internalType": "uint256",
          "name": "",
          "type": "uint256"
        }
      ],
      "stateMutability": "view",
      "type": "function"
    },
    {
      "inputs": [],
      "name": "totalWithdrawals",
      "outputs": [
        {
          "internalType": "uint256",
          "name": "",
          "type": "uint256"
        }
      ],
      "stateMutability": "view",
      "type": "function"
    },
    {
      "inputs": [
        {
          "internalType": "bytes32",
          "name": "",
          "type": "bytes32"
        }
      ],
      "name": "usedNullifiers",
      "outputs": [
        {
          "internalType": "bool",
          "name": "",
          "type": "bool"
        }
      ],
      "stateMutability": "view",
      "type": "function"
    },
    {
      "inputs": [],
      "name": "withdrawalNonce",
      "outputs": [
        {
          "internalType": "uint256",
          "name": "",
          "type": "uint256"
        }
      ],
      "stateMutability": "view",
      "type": "function"
    },
    {
      "inputs": [
        {
          "internalType": "bytes32",
          "name": "",
          "type": "bytes32"
        }
      ],
      "name": "withdrawalRequests",
      "outputs": [
        {
          "internalType": "address",
          "name": "recipient",
          "type": "address"
        },
        {
          "internalType": "address",
          "name": "token",
          "type": "address"
        },
        {
          "internalType": "uint256",
          "name": "amount",
          "type": "uint256"
        },
        {
          "internalType": "bytes32",
          "name": "nullifier",
          "type": "bytes32"
        },
        {
          "internalType": "uint256",
          "name": "timestamp",
          "type": "uint256"
        },
        {
          "internalType": "bool",
          "name": "executed",
          "type": "bool"
        }
      ],
      "stateMutability": "view",
      "type": "function"
    },
    {
      "stateMutability": "payable",
      "type": "receive"
    }
  ],
  "bytecode": "0x6080604052601e60065534801561001557600080fd5b5060405161509a38038061509a8339818101604052810190610037919061030e565b6001600081905550600073ffffffffffffffffffffffffffffffffffffffff168173ffffffffffffffffffffffffffffffffffffffff16036100ae576040517f08c379a00000000000000000000000000000000000000000000000000000000081526004016100a590610398565b60405180910390fd5b80600360006101000a81548173ffffffffffffffffffffffffffffffffffffffff021916908373ffffffffffffffffffffffffffffffffffffffff1602179055506101026000801b3361013a60201b60201c565b506101337f65d7a28e3265b37a6474929f336521b332c1681b933f6cb9f3376673440d862a3361013a60201b60201c565b50506103b8565b600061014c838361023860201b60201c565b61022d5760016002600085815260200190815260200160002060000160008473ffffffffffffffffffffffffffffffffffffffff1673ffffffffffffffffffffffffffffffffffffffff16815260200190815260200160002060006101000a81548160ff0219169083151502179055506101ca6102a360201b60201c565b73ffffffffffffffffffffffffffffffffffffffff168273ffffffffffffffffffffffffffffffffffffffff16847f2f8788117e7eff1d82e926ec794901d17c78024a50270940304540a733656f0d60405160405180910390a460019050610232565b600090505b92915050565b60006002600084815260200190815260200160002060000160008373ffffffffffffffffffffffffffffffffffffffff1673ffffffffffffffffffffffffffffffffffffffff16815260200190815260200160002060009054906101000a900460ff16905092915050565b600033905090565b600080fd5b600073ffffffffffffffffffffffffffffffffffffffff82169050919050565b60006102db826102b0565b9050919050565b6102eb816102d0565b81146102f657600080fd5b50565b600081519050610308816102e2565b92915050565b600060208284031215610324576103236102ab565b5b6000610332848285016102f9565b91505092915050565b600082825260208201905092915050565b7f496e76616c696420636f6f7264696e61746f7200000000000000000000000000600082015250565b600061038260138361033b565b915061038d8261034c565b602082019050919050565b600060208201905081810360008301526103b181610375565b9050919050565b614cd3806103c76000396000f3fe60806040526004361061024a5760003560e01c80637b259db411610139578063c1809db1116100b6578063dd5967c31161007a578063dd5967c31461091e578063de35f5cb14610949578063e1e158a514610974578063e63ab1e91461099f578063e63ea408146109ca578063e84dde05146109f357610251565b8063c1809db114610824578063c40868931461084d578063c59d48471461088a578063d21b4925146108b8578063d547741f146108f557610251565b8063998cdf83116100fd578063998cdf8314610753578063a201ccf61461077c578063a217fddf146107a5578063bd6af9e4146107d0578063bf53253b146107f957610251565b80637b259db41461066c5780637d8820971461069757806382b12dd7146106c25780638ea98117146106ed57806391d148541461071657610251565b8063266e2bd8116101c7578063566887001161018b578063566887001461058d5780635c975abb146105a95780635f81a57c146105d457806360464627146105ff5780637a86983f1461062a57610251565b8063266e2bd8146104785780632f2ff15d146104b557806336568abe146104de5780633d4dff7b146105075780633e7d48ab1461054b57610251565b806316c38b3c1161020e57806316c38b3c1461036d57806320037cdd14610396578063206137aa146103c157806322dc7b4c146103fe578063248a9ca31461043b57610251565b806301ffc9a71461025657806302630636146102935780630483a7f6146102c35780630a00909714610300578063124b82a51461032b57610251565b3661025157005b600080fd5b34801561026257600080fd5b5061027d60048036038101906102789190613544565b610a30565b60405161028a919061358c565b60405180910390f35b6102ad60048036038101906102a891906136b1565b610aaa565b6040516102ba919061373b565b60405180910390f35b3480156102cf57600080fd5b506102ea60048036038101906102e59190613756565b611004565b6040516102f79190613792565b60405180910390f35b34801561030c57600080fd5b5061031561101c565b60405161032291906137bc565b60405180910390f35b34801561033757600080fd5b50610352600480360381019061034d91906137d7565b611042565b60405161036496959493929190613804565b60405180910390f35b34801561037957600080fd5b50610394600480360381019061038f9190613891565b6110cb565b005b3480156103a257600080fd5b506103ab611163565b6040516103b8919061373b565b60405180910390f35b3480156103cd57600080fd5b506103e860048036038101906103e391906137d7565b611187565b6040516103f5919061358c565b60405180910390f35b34801561040a57600080fd5b50610425600480360381019061042091906137d7565b6111a7565b604051610432919061358c565b60405180910390f35b34801561044757600080fd5b50610462600480360381019061045d91906137d7565b6111d1565b60405161046f919061373b565b60405180910390f35b34801561048457600080fd5b5061049f600480360381019061049a9190613756565b6111f1565b6040516104ac9190613792565b60405180910390f35b3480156104c157600080fd5b506104dc60048036038101906104d791906138be565b611315565b005b3480156104ea57600080fd5b50610505600480360381019061050091906138be565b611337565b005b34801561051357600080fd5b5061052e600480360381019061052991906137d7565b6113b2565b60405161054298979695949392919061390d565b60405180910390f35b34801561055757600080fd5b50610572600480360381019061056d91906137d7565b61145b565b6040516105849695949392919061398b565b60405180910390f35b6105a760048036038101906105a291906139ec565b6115a2565b005b3480156105b557600080fd5b506105be61177f565b6040516105cb919061358c565b60405180910390f35b3480156105e057600080fd5b506105e9611796565b6040516105f69190613792565b60405180910390f35b34801561060b57600080fd5b5061061461179c565b6040516106219190613792565b60405180910390f35b34801561063657600080fd5b50610651600480360381019061064c91906137d7565b6117a2565b60405161066396959493929190613a2c565b60405180910390f35b34801561067857600080fd5b50610681611926565b60405161068e9190613792565b60405180910390f35b3480156106a357600080fd5b506106ac61192c565b6040516106b99190613792565b60405180910390f35b3480156106ce57600080fd5b506106d7611932565b6040516106e49190613792565b60405180910390f35b3480156106f957600080fd5b50610714600480360381019061070f9190613756565b611938565b005b34801561072257600080fd5b5061073d600480360381019061073891906138be565b611a86565b60405161074a919061358c565b60405180910390f35b34801561075f57600080fd5b5061077a60048036038101906107759190613a8d565b611af1565b005b34801561078857600080fd5b506107a3600480360381019061079e91906139ec565b611b8e565b005b3480156107b157600080fd5b506107ba611de2565b6040516107c7919061373b565b60405180910390f35b3480156107dc57600080fd5b506107f760048036038101906107f29190613756565b611de9565b005b34801561080557600080fd5b5061080e611e25565b60405161081b91906137bc565b60405180910390f35b34801561083057600080fd5b5061084b60048036038101906108469190613756565b611e2a565b005b34801561085957600080fd5b50610874600480360381019061086f9190613756565b611ed5565b6040516108819190613792565b60405180910390f35b34801561089657600080fd5b5061089f611f1e565b6040516108af9493929190613aba565b60405180910390f35b3480156108c457600080fd5b506108df60048036038101906108da9190613b64565b611f4b565b6040516108ec919061373b565b60405180910390f35b34801561090157600080fd5b5061091c600480360381019061091791906138be565b612294565b005b34801561092a57600080fd5b506109336122b6565b6040516109409190613792565b60405180910390f35b34801561095557600080fd5b5061095e6122c4565b60405161096b9190613792565b60405180910390f35b34801561098057600080fd5b506109896122ca565b6040516109969190613792565b60405180910390f35b3480156109ab57600080fd5b506109b46122d5565b6040516109c1919061373b565b60405180910390f35b3480156109d657600080fd5b506109f160048036038101906109ec9190613bfe565b6122f9565b005b3480156109ff57600080fd5b50610a1a6004803603810190610a159190613c51565b612526565b604051610a27919061358c565b60405180910390f35b60007f7965db0b000000000000000000000000000000000000000000000000000000007bffffffffffffffffffffffffffffffffffffffffffffffffffffffff1916827bffffffffffffffffffffffffffffffffffffffffffffffffffffffff19161480610aa35750610aa282612bd7565b5b9050919050565b6000610ab4612c41565b610abc612c87565b8466038d7ea4c680008110158015610ade575069d3c21bcecceda10000008111155b610b1d576040517f08c379a0000000000000000000000000000000000000000000000000000000008152600401610b1490613d0e565b60405180910390fd5b468567ffffffffffffffff1603610b69576040517f08c379a0000000000000000000000000000000000000000000000000000000008152600401610b6090613d7a565b60405180910390fd5b6000801b8403610bae576040517f08c379a0000000000000000000000000000000000000000000000000000000008152600401610ba590613de6565b60405180910390fd5b6000801b8303610bf3576040517f08c379a0000000000000000000000000000000000000000000000000000000008152600401610bea90613e52565b60405180910390fd5b600061271060065488610c069190613ea1565b610c109190613f12565b905060008188610c209190613f43565b9050600073ffffffffffffffffffffffffffffffffffffffff168973ffffffffffffffffffffffffffffffffffffffff1603610c9d57873414610c98576040517f08c379a0000000000000000000000000000000000000000000000000000000008152600401610c8f90613fc3565b60405180910390fd5b610d0e565b60003414610ce0576040517f08c379a0000000000000000000000000000000000000000000000000000000008152600401610cd79061402f565b60405180910390fd5b610d0d33308a8c73ffffffffffffffffffffffffffffffffffffffff16612cc8909392919063ffffffff16565b5b33898989898960046000815480929190610d279061404f565b919050554342600143610d3a9190613f43565b40604051602001610d549a99989796959493929190614157565b6040516020818303038152906040528051906020012093506040518061010001604052803373ffffffffffffffffffffffffffffffffffffffff1681526020018a73ffffffffffffffffffffffffffffffffffffffff1681526020018281526020018867ffffffffffffffff168152602001878152602001868152602001428152602001600015158152506009600086815260200190815260200160002060008201518160000160006101000a81548173ffffffffffffffffffffffffffffffffffffffff021916908373ffffffffffffffffffffffffffffffffffffffff16021790555060208201518160010160006101000a81548173ffffffffffffffffffffffffffffffffffffffff021916908373ffffffffffffffffffffffffffffffffffffffff1602179055506040820151816002015560608201518160030160006101000a81548167ffffffffffffffff021916908367ffffffffffffffff1602179055506080820151816004015560a0820151816005015560c0820151816006015560e08201518160070160006101000a81548160ff02191690831515021790555090505080600760008b73ffffffffffffffffffffffffffffffffffffffff1673ffffffffffffffffffffffffffffffffffffffff1681526020019081526020016000206000828254610f49919061420b565b9250508190555080600b6000828254610f62919061420b565b9250508190555080600d6000828254610f7b919061420b565b925050819055508873ffffffffffffffffffffffffffffffffffffffff163373ffffffffffffffffffffffffffffffffffffffff16857f473c868190484997c0f8f7ef2c2325324268b79ea92bda931cf11df4517fc1b0848b8b8b42604051610fe895949392919061423f565b60405180910390a4505050610ffb612d4a565b95945050505050565b60076020528060005260406000206000915090505481565b600360009054906101000a900473ffffffffffffffffffffffffffffffffffffffff1681565b600a6020528060005260406000206000915090508060000160009054906101000a900473ffffffffffffffffffffffffffffffffffffffff16908060010160009054906101000a900473ffffffffffffffffffffffffffffffffffffffff16908060020154908060030154908060040154908060050160009054906101000a900460ff16905086565b7f65d7a28e3265b37a6474929f336521b332c1681b933f6cb9f3376673440d862a6110f581612d54565b811561115657611103612d68565b3373ffffffffffffffffffffffffffffffffffffffff167fc2a40ead64043aa7803b028f611e6c0db6ca7ae2199feafe5c96a303c0ebed6b4260405161114991906142de565b60405180910390a261115f565b61115e612dca565b5b5050565b7f42802a37d17e698ec3d88f7a6917f1f5a6abb4d99a8f4255c389e56d10218a6481565b60086020528060005260406000206000915054906101000a900460ff1681565b60006008600083815260200190815260200160002060009054906101000a900460ff169050919050565b600060026000838152602001908152602001600020600101549050919050565b600080600073ffffffffffffffffffffffffffffffffffffffff168373ffffffffffffffffffffffffffffffffffffffff1603611230574790506112ad565b8273ffffffffffffffffffffffffffffffffffffffff166370a08231306040518263ffffffff1660e01b815260040161126991906137bc565b602060405180830381865afa158015611286573d6000803e3d6000fd5b505050506040513d601f19601f820116820180604052508101906112aa9190614321565b90505b6000600760008573ffffffffffffffffffffffffffffffffffffffff1673ffffffffffffffffffffffffffffffffffffffff1681526020019081526020016000205490508082116112ff57600061130c565b808261130b9190613f43565b5b92505050919050565b61131e826111d1565b61132781612d54565b6113318383612e2d565b50505050565b61133f612f1f565b73ffffffffffffffffffffffffffffffffffffffff168173ffffffffffffffffffffffffffffffffffffffff16146113a3576040517f6697b23200000000000000000000000000000000000000000000000000000000815260040160405180910390fd5b6113ad8282612f27565b505050565b60096020528060005260406000206000915090508060000160009054906101000a900473ffffffffffffffffffffffffffffffffffffffff16908060010160009054906101000a900473ffffffffffffffffffffffffffffffffffffffff16908060020154908060030160009054906101000a900467ffffffffffffffff16908060040154908060050154908060060154908060070160009054906101000a900460ff16905088565b6000806000806000806000600a60008981526020019081526020016000206040518060c00160405290816000820160009054906101000a900473ffffffffffffffffffffffffffffffffffffffff1673ffffffffffffffffffffffffffffffffffffffff1673ffffffffffffffffffffffffffffffffffffffff1681526020016001820160009054906101000a900473ffffffffffffffffffffffffffffffffffffffff1673ffffffffffffffffffffffffffffffffffffffff1673ffffffffffffffffffffffffffffffffffffffff1681526020016002820154815260200160038201548152602001600482015481526020016005820160009054906101000a900460ff1615151515815250509050600081608001511181600001518260200151836040015184606001518560a001519650965096509650965096505091939550919395565b6115aa612c41565b6115b2612c87565b7f42802a37d17e698ec3d88f7a6917f1f5a6abb4d99a8f4255c389e56d10218a646115dc81612d54565b6000821161161f576040517f08c379a00000000000000000000000000000000000000000000000000000000081526004016116169061439a565b60405180910390fd5b600073ffffffffffffffffffffffffffffffffffffffff168373ffffffffffffffffffffffffffffffffffffffff160361169a57813414611695576040517f08c379a000000000000000000000000000000000000000000000000000000000815260040161168c90613fc3565b60405180910390fd5b61170b565b600034146116dd576040517f08c379a00000000000000000000000000000000000000000000000000000000081526004016116d49061402f565b60405180910390fd5b61170a3330848673ffffffffffffffffffffffffffffffffffffffff16612cc8909392919063ffffffff16565b5b8273ffffffffffffffffffffffffffffffffffffffff163373ffffffffffffffffffffffffffffffffffffffff167f36f3b2e1a21c19137dd82ec243b0708a1d26b3d1fa1dc49c44c4c366a5878138844260405161176a9291906143ba565b60405180910390a35061177b612d4a565b5050565b6000600160009054906101000a900460ff16905090565b600d5481565b600c5481565b600080600080600080600060096000898152602001908152602001600020604051806101000160405290816000820160009054906101000a900473ffffffffffffffffffffffffffffffffffffffff1673ffffffffffffffffffffffffffffffffffffffff1673ffffffffffffffffffffffffffffffffffffffff1681526020016001820160009054906101000a900473ffffffffffffffffffffffffffffffffffffffff1673ffffffffffffffffffffffffffffffffffffffff1673ffffffffffffffffffffffffffffffffffffffff168152602001600282015481526020016003820160009054906101000a900467ffffffffffffffff1667ffffffffffffffff1667ffffffffffffffff1681526020016004820154815260200160058201548152602001600682015481526020016007820160009054906101000a900460ff161515151581525050905060008160c001511181600001518260200151836040015184606001518560e001519650965096509650965096505091939550919395565b60055481565b600b5481565b60065481565b6000801b61194581612d54565b600073ffffffffffffffffffffffffffffffffffffffff168273ffffffffffffffffffffffffffffffffffffffff16036119b4576040517f08c379a00000000000000000000000000000000000000000000000000000000081526004016119ab9061442f565b60405180910390fd5b6000600360009054906101000a900473ffffffffffffffffffffffffffffffffffffffff16905082600360006101000a81548173ffffffffffffffffffffffffffffffffffffffff021916908373ffffffffffffffffffffffffffffffffffffffff1602179055508273ffffffffffffffffffffffffffffffffffffffff168173ffffffffffffffffffffffffffffffffffffffff167f86ce44441212f206600c3cd7c37b7fd44e3f819512693f9bfb31921d0ca492cf42604051611a799190613792565b60405180910390a3505050565b60006002600084815260200190815260200160002060000160008373ffffffffffffffffffffffffffffffffffffffff1673ffffffffffffffffffffffffffffffffffffffff16815260200190815260200160002060009054906101000a900460ff16905092915050565b6000801b611afe81612d54565b6064821115611b42576040517f08c379a0000000000000000000000000000000000000000000000000000000008152600401611b399061449b565b60405180910390fd5b60006006549050826006819055507f3e7af433b010df0902f945628a14ef63c63e1e5e8306127bde522445a470588f8184604051611b819291906143ba565b60405180910390a1505050565b611b96612c41565b611b9e612c87565b7f42802a37d17e698ec3d88f7a6917f1f5a6abb4d99a8f4255c389e56d10218a64611bc881612d54565b60008211611c0b576040517f08c379a0000000000000000000000000000000000000000000000000000000008152600401611c029061439a565b60405180910390fd5b6000611c16846111f1565b905082811015611c5b576040517f08c379a0000000000000000000000000000000000000000000000000000000008152600401611c5290614507565b60405180910390fd5b600073ffffffffffffffffffffffffffffffffffffffff168473ffffffffffffffffffffffffffffffffffffffff1603611d415760003373ffffffffffffffffffffffffffffffffffffffff1684604051611cb590614558565b60006040518083038185875af1925050503d8060008114611cf2576040519150601f19603f3d011682016040523d82523d6000602084013e611cf7565b606091505b5050905080611d3b576040517f08c379a0000000000000000000000000000000000000000000000000000000008152600401611d32906145b9565b60405180910390fd5b50611d6d565b611d6c33848673ffffffffffffffffffffffffffffffffffffffff1661301a9092919063ffffffff16565b5b8373ffffffffffffffffffffffffffffffffffffffff163373ffffffffffffffffffffffffffffffffffffffff167f3b5c196aff80bb96c03b41c96906b66827014de931d1b36e0ede6ee8caeb4bf98542604051611dcc9291906143ba565b60405180910390a35050611dde612d4a565b5050565b6000801b81565b6000801b611df681612d54565b611e207f42802a37d17e698ec3d88f7a6917f1f5a6abb4d99a8f4255c389e56d10218a6483612f27565b505050565b600081565b6000801b611e3781612d54565b600073ffffffffffffffffffffffffffffffffffffffff168273ffffffffffffffffffffffffffffffffffffffff1603611ea6576040517f08c379a0000000000000000000000000000000000000000000000000000000008152600401611e9d90614625565b60405180910390fd5b611ed07f42802a37d17e698ec3d88f7a6917f1f5a6abb4d99a8f4255c389e56d10218a6483612e2d565b505050565b6000600760008373ffffffffffffffffffffffffffffffffffffffff1673ffffffffffffffffffffffffffffffffffffffff168152602001908152602001600020549050919050565b600080600080600b54600c54600d54600c54600b54611f3d9190613f43565b935093509350935090919293565b6000611f55612c41565b611f5d612c87565b60008611611fa0576040517f08c379a0000000000000000000000000000000000000000000000000000000008152600401611f979061439a565b60405180910390fd5b6000801b8503611fe5576040517f08c379a0000000000000000000000000000000000000000000000000000000008152600401611fdc90614691565b60405180910390fd5b6008600086815260200190815260200160002060009054906101000a900460ff1615612046576040517f08c379a000000000000000000000000000000000000000000000000000000000815260040161203d906146fd565b60405180910390fd5b6000801b820361208b576040517f08c379a000000000000000000000000000000000000000000000000000000000815260040161208290614769565b60405180910390fd5b33878787600560008154809291906120a29061404f565b91905055426040516020016120bc96959493929190614789565b6040516020818303038152906040528051906020012090506040518060c001604052803373ffffffffffffffffffffffffffffffffffffffff1681526020018873ffffffffffffffffffffffffffffffffffffffff16815260200187815260200186815260200142815260200160001515815250600a600083815260200190815260200160002060008201518160000160006101000a81548173ffffffffffffffffffffffffffffffffffffffff021916908373ffffffffffffffffffffffffffffffffffffffff16021790555060208201518160010160006101000a81548173ffffffffffffffffffffffffffffffffffffffff021916908373ffffffffffffffffffffffffffffffffffffffff16021790555060408201518160020155606082015181600301556080820151816004015560a08201518160050160006101000a81548160ff0219169083151502179055509050508673ffffffffffffffffffffffffffffffffffffffff163373ffffffffffffffffffffffffffffffffffffffff16827f2440ad6a3afea25f97f813b4a1fbb4cf821f8efcf260d7e88af28eff0a261f1989898989894260405161227a96959493929190614857565b60405180910390a461228a612d4a565b9695505050505050565b61229d826111d1565b6122a681612d54565b6122b08383612f27565b50505050565b69d3c21bcecceda100000081565b60045481565b66038d7ea4c6800081565b7f65d7a28e3265b37a6474929f336521b332c1681b933f6cb9f3376673440d862a81565b6000801b61230681612d54565b61230e613099565b600073ffffffffffffffffffffffffffffffffffffffff168373ffffffffffffffffffffffffffffffffffffffff160361237d576040517f08c379a000000000000000000000000000000000000000000000000000000000815260040161237490613de6565b60405180910390fd5b600082116123c0576040517f08c379a00000000000000000000000000000000000000000000000000000000081526004016123b79061439a565b60405180910390fd5b600073ffffffffffffffffffffffffffffffffffffffff168473ffffffffffffffffffffffffffffffffffffffff16036124a65760008373ffffffffffffffffffffffffffffffffffffffff168360405161241a90614558565b60006040518083038185875af1925050503d8060008114612457576040519150601f19603f3d011682016040523d82523d6000602084013e61245c565b606091505b50509050806124a0576040517f08c379a0000000000000000000000000000000000000000000000000000000008152600401612497906145b9565b60405180910390fd5b506124d2565b6124d183838673ffffffffffffffffffffffffffffffffffffffff1661301a9092919063ffffffff16565b5b3373ffffffffffffffffffffffffffffffffffffffff167fc2a40ead64043aa7803b028f611e6c0db6ca7ae2199feafe5c96a303c0ebed6b4260405161251891906148ff565b60405180910390a250505050565b6000612530612c41565b612538612c87565b6000600a600086815260200190815260200160002090506000816004015411612596576040517f08c379a000000000000000000000000000000000000000000000000000000000815260040161258d90614979565b60405180910390fd5b8060050160009054906101000a900460ff16156125e8576040517f08c379a00000000000000000000000000000000000000000000000000000000081526004016125df906149e5565b60405180910390fd5b600860008260030154815260200190815260200160002060009054906101000a900460ff161561264d576040517f08c379a0000000000000000000000000000000000000000000000000000000008152600401612644906146fd565b60405180910390fd5b8060020154600760008360010160009054906101000a900473ffffffffffffffffffffffffffffffffffffffff1673ffffffffffffffffffffffffffffffffffffffff1673ffffffffffffffffffffffffffffffffffffffff1681526020019081526020016000205410156126f7576040517f08c379a00000000000000000000000000000000000000000000000000000000081526004016126ee90614a51565b60405180910390fd5b6000858260000160009054906101000a900473ffffffffffffffffffffffffffffffffffffffff168360010160009054906101000a900473ffffffffffffffffffffffffffffffffffffffff16846002015485600301544660405160200161276496959493929190614a71565b6040516020818303038152906040528051906020012090506000612787826130d9565b905060006127e287878080601f016020809104026020016040519081016040528093929190818152602001838380828437600081840152601f19601f820116905080830192505050505050508361310f90919063ffffffff16565b9050600360009054906101000a900473ffffffffffffffffffffffffffffffffffffffff1673ffffffffffffffffffffffffffffffffffffffff168173ffffffffffffffffffffffffffffffffffffffff1614612874576040517f08c379a000000000000000000000000000000000000000000000000000000000815260040161286b90614b2d565b60405180910390fd5b60018460050160006101000a81548160ff0219169083151502179055506001600860008660030154815260200190815260200160002060006101000a81548160ff0219169083151502179055508360020154600760008660010160009054906101000a900473ffffffffffffffffffffffffffffffffffffffff1673ffffffffffffffffffffffffffffffffffffffff1673ffffffffffffffffffffffffffffffffffffffff16815260200190815260200160002060008282546129389190613f43565b925050819055508360020154600c6000828254612955919061420b565b92505081905550600073ffffffffffffffffffffffffffffffffffffffff168460010160009054906101000a900473ffffffffffffffffffffffffffffffffffffffff1673ffffffffffffffffffffffffffffffffffffffff1603612a8e5760008460000160009054906101000a900473ffffffffffffffffffffffffffffffffffffffff1673ffffffffffffffffffffffffffffffffffffffff168560020154604051612a0290614558565b60006040518083038185875af1925050503d8060008114612a3f576040519150601f19603f3d011682016040523d82523d6000602084013e612a44565b606091505b5050905080612a88576040517f08c379a0000000000000000000000000000000000000000000000000000000008152600401612a7f906145b9565b60405180910390fd5b50612b06565b612b058460000160009054906101000a900473ffffffffffffffffffffffffffffffffffffffff1685600201548660010160009054906101000a900473ffffffffffffffffffffffffffffffffffffffff1673ffffffffffffffffffffffffffffffffffffffff1661301a9092919063ffffffff16565b5b8360010160009054906101000a900473ffffffffffffffffffffffffffffffffffffffff1673ffffffffffffffffffffffffffffffffffffffff168460000160009054906101000a900473ffffffffffffffffffffffffffffffffffffffff1673ffffffffffffffffffffffffffffffffffffffff16897f21d9ea1462a7e2acec25283a4954105de53d57b233f839a318a368b23aaa81ef8760020154886003015442604051612bb893929190614b4d565b60405180910390a46001945050505050612bd0612d4a565b9392505050565b60007f01ffc9a7000000000000000000000000000000000000000000000000000000007bffffffffffffffffffffffffffffffffffffffffffffffffffffffff1916827bffffffffffffffffffffffffffffffffffffffffffffffffffffffff1916149050919050565b600260005403612c7d576040517f3ee5aeb500000000000000000000000000000000000000000000000000000000815260040160405180910390fd5b6002600081905550565b612c8f61177f565b15612cc6576040517fd93c066500000000000000000000000000000000000000000000000000000000815260040160405180910390fd5b565b612d44848573ffffffffffffffffffffffffffffffffffffffff166323b872dd868686604051602401612cfd93929190614b84565b604051602081830303815290604052915060e01b6020820180517bffffffffffffffffffffffffffffffffffffffffffffffffffffffff838183161783525050505061313b565b50505050565b6001600081905550565b612d6581612d60612f1f565b6131dd565b50565b612d70612c87565b60018060006101000a81548160ff0219169083151502179055507f62e78cea01bee320cd4e420270b5ea74000d11b0c9f74754ebdbfc544b05a258612db3612f1f565b604051612dc091906137bc565b60405180910390a1565b612dd2613099565b6000600160006101000a81548160ff0219169083151502179055507f5db9ee0a495bf2e6ff9c91a7834c1ba4fdd244a5e8aa4e537bd38aeae4b073aa612e16612f1f565b604051612e2391906137bc565b60405180910390a1565b6000612e398383611a86565b612f145760016002600085815260200190815260200160002060000160008473ffffffffffffffffffffffffffffffffffffffff1673ffffffffffffffffffffffffffffffffffffffff16815260200190815260200160002060006101000a81548160ff021916908315150217905550612eb1612f1f565b73ffffffffffffffffffffffffffffffffffffffff168273ffffffffffffffffffffffffffffffffffffffff16847f2f8788117e7eff1d82e926ec794901d17c78024a50270940304540a733656f0d60405160405180910390a460019050612f19565b600090505b92915050565b600033905090565b6000612f338383611a86565b1561300f5760006002600085815260200190815260200160002060000160008473ffffffffffffffffffffffffffffffffffffffff1673ffffffffffffffffffffffffffffffffffffffff16815260200190815260200160002060006101000a81548160ff021916908315150217905550612fac612f1f565b73ffffffffffffffffffffffffffffffffffffffff168273ffffffffffffffffffffffffffffffffffffffff16847ff6391f5c32d9c69d2a47ea670b442974b53935d1edc7fd64eb21e047a839171b60405160405180910390a460019050613014565b600090505b92915050565b613094838473ffffffffffffffffffffffffffffffffffffffff1663a9059cbb858560405160240161304d929190614bbb565b604051602081830303815290604052915060e01b6020820180517bffffffffffffffffffffffffffffffffffffffffffffffffffffffff838183161783525050505061313b565b505050565b6130a161177f565b6130d7576040517f8dfc202b00000000000000000000000000000000000000000000000000000000815260040160405180910390fd5b565b60007f19457468657265756d205369676e6564204d6573736167653a0a33320000000060005281601c52603c6000209050919050565b60008060008061311f868661322e565b92509250925061312f828261328a565b82935050505092915050565b600080602060008451602086016000885af18061315e576040513d6000823e3d81fd5b3d925060005191505060008214613179576001811415613195565b60008473ffffffffffffffffffffffffffffffffffffffff163b145b156131d757836040517f5274afe70000000000000000000000000000000000000000000000000000000081526004016131ce91906137bc565b60405180910390fd5b50505050565b6131e78282611a86565b61322a5780826040517fe2517d3f000000000000000000000000000000000000000000000000000000008152600401613221929190614be4565b60405180910390fd5b5050565b600080600060418451036132735760008060006020870151925060408701519150606087015160001a9050613265888285856133ee565b955095509550505050613283565b60006002855160001b9250925092505b9250925092565b6000600381111561329e5761329d614c0d565b5b8260038111156132b1576132b0614c0d565b5b03156133ea57600160038111156132cb576132ca614c0d565b5b8260038111156132de576132dd614c0d565b5b03613315576040517ff645eedf00000000000000000000000000000000000000000000000000000000815260040160405180910390fd5b6002600381111561332957613328614c0d565b5b82600381111561333c5761333b614c0d565b5b03613381578060001c6040517ffce698f70000000000000000000000000000000000000000000000000000000081526004016133789190613792565b60405180910390fd5b60038081111561339457613393614c0d565b5b8260038111156133a7576133a6614c0d565b5b036133e957806040517fd78bce0c0000000000000000000000000000000000000000000000000000000081526004016133e0919061373b565b60405180910390fd5b5b5050565b60008060007f7fffffffffffffffffffffffffffffff5d576e7357a4501ddfe92f46681b20a08460001c111561342e5760006003859250925092506134d8565b6000600188888888604051600081526020016040526040516134539493929190614c58565b6020604051602081039080840390855afa158015613475573d6000803e3d6000fd5b505050602060405103519050600073ffffffffffffffffffffffffffffffffffffffff168173ffffffffffffffffffffffffffffffffffffffff16036134c957600060016000801b935093509350506134d8565b8060008060001b935093509350505b9450945094915050565b600080fd5b600080fd5b60007fffffffff0000000000000000000000000000000000000000000000000000000082169050919050565b613521816134ec565b811461352c57600080fd5b50565b60008135905061353e81613518565b92915050565b60006020828403121561355a576135596134e2565b5b60006135688482850161352f565b91505092915050565b60008115159050919050565b61358681613571565b82525050565b60006020820190506135a1600083018461357d565b92915050565b600073ffffffffffffffffffffffffffffffffffffffff82169050919050565b60006135d2826135a7565b9050919050565b6135e2816135c7565b81146135ed57600080fd5b50565b6000813590506135ff816135d9565b92915050565b6000819050919050565b61361881613605565b811461362357600080fd5b50565b6000813590506136358161360f565b92915050565b600067ffffffffffffffff82169050919050565b6136588161363b565b811461366357600080fd5b50565b6000813590506136758161364f565b92915050565b6000819050919050565b61368e8161367b565b811461369957600080fd5b50565b6000813590506136ab81613685565b92915050565b600080600080600060a086880312156136cd576136cc6134e2565b5b60006136db888289016135f0565b95505060206136ec88828901613626565b94505060406136fd88828901613666565b935050606061370e8882890161369c565b925050608061371f8882890161369c565b9150509295509295909350565b6137358161367b565b82525050565b6000602082019050613750600083018461372c565b92915050565b60006020828403121561376c5761376b6134e2565b5b600061377a848285016135f0565b91505092915050565b61378c81613605565b82525050565b60006020820190506137a76000830184613783565b92915050565b6137b6816135c7565b82525050565b60006020820190506137d160008301846137ad565b92915050565b6000602082840312156137ed576137ec6134e2565b5b60006137fb8482850161369c565b91505092915050565b600060c08201905061381960008301896137ad565b61382660208301886137ad565b6138336040830187613783565b613840606083018661372c565b61384d6080830185613783565b61385a60a083018461357d565b979650505050505050565b61386e81613571565b811461387957600080fd5b50565b60008135905061388b81613865565b92915050565b6000602082840312156138a7576138a66134e2565b5b60006138b58482850161387c565b91505092915050565b600080604083850312156138d5576138d46134e2565b5b60006138e38582860161369c565b92505060206138f4858286016135f0565b9150509250929050565b6139078161363b565b82525050565b600061010082019050613923600083018b6137ad565b613930602083018a6137ad565b61393d6040830189613783565b61394a60608301886138fe565b613957608083018761372c565b61396460a083018661372c565b61397160c0830185613783565b61397e60e083018461357d565b9998505050505050505050565b600060c0820190506139a0600083018961357d565b6139ad60208301886137ad565b6139ba60408301876137ad565b6139c76060830186613783565b6139d4608083018561372c565b6139e160a083018461357d565b979650505050505050565b60008060408385031215613a0357613a026134e2565b5b6000613a11858286016135f0565b9250506020613a2285828601613626565b9150509250929050565b600060c082019050613a41600083018961357d565b613a4e60208301886137ad565b613a5b60408301876137ad565b613a686060830186613783565b613a7560808301856138fe565b613a8260a083018461357d565b979650505050505050565b600060208284031215613aa357613aa26134e2565b5b6000613ab184828501613626565b91505092915050565b6000608082019050613acf6000830187613783565b613adc6020830186613783565b613ae96040830185613783565b613af66060830184613783565b95945050505050565b600080fd5b600080fd5b600080fd5b60008083601f840112613b2457613b23613aff565b5b8235905067ffffffffffffffff811115613b4157613b40613b04565b5b602083019150836001820283011115613b5d57613b5c613b09565b5b9250929050565b60008060008060008060a08789031215613b8157613b806134e2565b5b6000613b8f89828a016135f0565b9650506020613ba089828a01613626565b9550506040613bb189828a0161369c565b945050606087013567ffffffffffffffff811115613bd257613bd16134e7565b5b613bde89828a01613b0e565b93509350506080613bf189828a0161369c565b9150509295509295509295565b600080600060608486031215613c1757613c166134e2565b5b6000613c25868287016135f0565b9350506020613c36868287016135f0565b9250506040613c4786828701613626565b9150509250925092565b600080600060408486031215613c6a57613c696134e2565b5b6000613c788682870161369c565b935050602084013567ffffffffffffffff811115613c9957613c986134e7565b5b613ca586828701613b0e565b92509250509250925092565b600082825260208201905092915050565b7f416d6f756e74206f7574206f662072616e676500000000000000000000000000600082015250565b6000613cf8601383613cb1565b9150613d0382613cc2565b602082019050919050565b60006020820190508181036000830152613d2781613ceb565b9050919050565b7f43616e6e6f742062726964676520746f2073616d6520636861696e0000000000600082015250565b6000613d64601b83613cb1565b9150613d6f82613d2e565b602082019050919050565b60006020820190508181036000830152613d9381613d57565b9050919050565b7f496e76616c696420726563697069656e74000000000000000000000000000000600082015250565b6000613dd0601183613cb1565b9150613ddb82613d9a565b602082019050919050565b60006020820190508181036000830152613dff81613dc3565b9050919050565b7f496e76616c6964205a6361736820616464726573730000000000000000000000600082015250565b6000613e3c601583613cb1565b9150613e4782613e06565b602082019050919050565b60006020820190508181036000830152613e6b81613e2f565b9050919050565b7f4e487b7100000000000000000000000000000000000000000000000000000000600052601160045260246000fd5b6000613eac82613605565b9150613eb783613605565b9250828202613ec581613605565b91508282048414831517613edc57613edb613e72565b5b5092915050565b7f4e487b7100000000000000000000000000000000000000000000000000000000600052601260045260246000fd5b6000613f1d82613605565b9150613f2883613605565b925082613f3857613f37613ee3565b5b828204905092915050565b6000613f4e82613605565b9150613f5983613605565b9250828203905081811115613f7157613f70613e72565b5b92915050565b7f496e636f72726563742045544820616d6f756e74000000000000000000000000600082015250565b6000613fad601483613cb1565b9150613fb882613f77565b602082019050919050565b60006020820190508181036000830152613fdc81613fa0565b9050919050565b7f455448206e6f7420616363657074656420666f72204552433230000000000000600082015250565b6000614019601a83613cb1565b915061402482613fe3565b602082019050919050565b600060208201905081810360008301526140488161400c565b9050919050565b600061405a82613605565b91507fffffffffffffffffffffffffffffffffffffffffffffffffffffffffffffffff820361408c5761408b613e72565b5b600182019050919050565b60008160601b9050919050565b60006140af82614097565b9050919050565b60006140c1826140a4565b9050919050565b6140d96140d4826135c7565b6140b6565b82525050565b6000819050919050565b6140fa6140f582613605565b6140df565b82525050565b60008160c01b9050919050565b600061411882614100565b9050919050565b61413061412b8261363b565b61410d565b82525050565b6000819050919050565b61415161414c8261367b565b614136565b82525050565b6000614163828d6140c8565b601482019150614173828c6140c8565b601482019150614183828b6140e9565b602082019150614193828a61411f565b6008820191506141a38289614140565b6020820191506141b38288614140565b6020820191506141c382876140e9565b6020820191506141d382866140e9565b6020820191506141e382856140e9565b6020820191506141f38284614140565b6020820191508190509b9a5050505050505050505050565b600061421682613605565b915061422183613605565b925082820190508082111561423957614238613e72565b5b92915050565b600060a0820190506142546000830188613783565b61426160208301876138fe565b61426e604083018661372c565b61427b606083018561372c565b6142886080830184613783565b9695505050505050565b7f4d616e75616c2070617573650000000000000000000000000000000000000000600082015250565b60006142c8600c83613cb1565b91506142d382614292565b602082019050919050565b600060408201905081810360008301526142f7816142bb565b90506143066020830184613783565b92915050565b60008151905061431b8161360f565b92915050565b600060208284031215614337576143366134e2565b5b60006143458482850161430c565b91505092915050565b7f496e76616c696420616d6f756e74000000000000000000000000000000000000600082015250565b6000614384600e83613cb1565b915061438f8261434e565b602082019050919050565b600060208201905081810360008301526143b381614377565b9050919050565b60006040820190506143cf6000830185613783565b6143dc6020830184613783565b9392505050565b7f496e76616c696420636f6f7264696e61746f7200000000000000000000000000600082015250565b6000614419601383613cb1565b9150614424826143e3565b602082019050919050565b600060208201905081810360008301526144488161440c565b9050919050565b7f46656520746f6f20686967680000000000000000000000000000000000000000600082015250565b6000614485600c83613cb1565b91506144908261444f565b602082019050919050565b600060208201905081810360008301526144b481614478565b9050919050565b7f496e73756666696369656e7420617661696c61626c65206c6971756964697479600082015250565b60006144f1602083613cb1565b91506144fc826144bb565b602082019050919050565b60006020820190508181036000830152614520816144e4565b9050919050565b600081905092915050565b50565b6000614542600083614527565b915061454d82614532565b600082019050919050565b600061456382614535565b9150819050919050565b7f455448207472616e73666572206661696c656400000000000000000000000000600082015250565b60006145a3601383613cb1565b91506145ae8261456d565b602082019050919050565b600060208201905081810360008301526145d281614596565b9050919050565b7f496e76616c69642070726f766964657200000000000000000000000000000000600082015250565b600061460f601083613cb1565b915061461a826145d9565b602082019050919050565b6000602082019050818103600083015261463e81614602565b9050919050565b7f496e76616c6964206e756c6c6966696572000000000000000000000000000000600082015250565b600061467b601183613cb1565b915061468682614645565b602082019050919050565b600060208201905081810360008301526146aa8161466e565b9050919050565b7f4e756c6c696669657220616c7265616479207573656400000000000000000000600082015250565b60006146e7601683613cb1565b91506146f2826146b1565b602082019050919050565b60006020820190508181036000830152614716816146da565b9050919050565b7f496e76616c6964206d65726b6c6520726f6f7400000000000000000000000000600082015250565b6000614753601383613cb1565b915061475e8261471d565b602082019050919050565b6000602082019050818103600083015261478281614746565b9050919050565b600061479582896140c8565b6014820191506147a582886140c8565b6014820191506147b582876140e9565b6020820191506147c58286614140565b6020820191506147d582856140e9565b6020820191506147e582846140e9565b602082019150819050979650505050505050565b600082825260208201905092915050565b82818337600083830152505050565b6000601f19601f8301169050919050565b600061483683856147f9565b935061484383858461480a565b61484c83614819565b840190509392505050565b600060a08201905061486c6000830189613783565b614879602083018861372c565b818103604083015261488c81868861482a565b905061489b606083018561372c565b6148a86080830184613783565b979650505050505050565b7f456d657267656e6379207769746864726177616c206578656375746564000000600082015250565b60006148e9601d83613cb1565b91506148f4826148b3565b602082019050919050565b60006040820190508181036000830152614918816148dc565b90506149276020830184613783565b92915050565b7f5769746864726177616c206e6f7420666f756e64000000000000000000000000600082015250565b6000614963601483613cb1565b915061496e8261492d565b602082019050919050565b6000602082019050818103600083015261499281614956565b9050919050565b7f416c726561647920657865637574656400000000000000000000000000000000600082015250565b60006149cf601083613cb1565b91506149da82614999565b602082019050919050565b600060208201905081810360008301526149fe816149c2565b9050919050565b7f496e73756666696369656e74206c6f636b65642062616c616e63650000000000600082015250565b6000614a3b601b83613cb1565b9150614a4682614a05565b602082019050919050565b60006020820190508181036000830152614a6a81614a2e565b9050919050565b6000614a7d8289614140565b602082019150614a8d82886140c8565b601482019150614a9d82876140c8565b601482019150614aad82866140e9565b602082019150614abd8285614140565b602082019150614acd82846140e9565b602082019150819050979650505050505050565b7f496e76616c696420636f6f7264696e61746f72207369676e6174757265000000600082015250565b6000614b17601d83613cb1565b9150614b2282614ae1565b602082019050919050565b60006020820190508181036000830152614b4681614b0a565b9050919050565b6000606082019050614b626000830186613783565b614b6f602083018561372c565b614b7c6040830184613783565b949350505050565b6000606082019050614b9960008301866137ad565b614ba660208301856137ad565b614bb36040830184613783565b949350505050565b6000604082019050614bd060008301856137ad565b614bdd6020830184613783565b9392505050565b6000604082019050614bf960008301856137ad565b614c06602083018461372c565b9392505050565b7f4e487b7100000000000000000000000000000000000000000000000000000000600052602160045260246000fd5b600060ff82169050919050565b614c5281614c3c565b82525050565b6000608082019050614c6d600083018761372c565b614c7a6020830186614c49565b614c87604083018561372c565b614c94606083018461372c565b9594505050505056fea2646970667358221220e578d5f2e18769358f111bd606ac90aee5b3b911e90435f44a14cd25a2853d0964736f6c634300081c0033",
  "linkReferences": {},
  "deployedLinkReferences": {}
}